:020000040800F2
:1000000000500020D5040008890400088B04000873
:100010008D0400088F04000891040008000000000F
:100020000000000000000000000000009304000831
:1000300095040008000000009704000899040008D7
:100040001D0500081D0500081D0500081D05000808
:100050001D0500081D0500081D0500081D050008F8
:100060001D0500081D0500081D0500081D050008E8
:100070001D0500081D0500081D0500081D050008D8
:100080001D0500081D0500081D0500081D050008C8
:100090001D0500081D0500081D0500081D050008B8
:1000A0001D0500081D0500081D0500081D050008A8
:1000B0001D0500081D0500081D0500081D05000898
:1000C0001D0500081D0500081D050008A104000805
:1000D0001D050008B10400081D0500081D050008E5
:1000E0001D0500081D0500081D0500080000000092
:1000F0000000000000000000000000000000000000
:0C01000000000000000000005FF808F1A3
:10010C0010B5054C237833B9044B13B10448AFF345
:10011C0000800123237010BD3C040020000000006F
:10012C002018000808B5034B1BB103490348AFF373
:10013C00008008BD000000004004002020180008CA
:10014C002DE9F04188B0002404940594069407949A
:10015C002F4B9A6942F010029A619A6902F01002D0
:10016C000092009A9A6942F020029A619A6902F010
:10017C0020020192019A9A6942F004029A619A69EA
:10018C0002F004020292029A9A6942F008029A6101
:10019C009B6903F008030393039BDFF880802246DE
:1001AC004FF40051404600F0FBFB1A4E22464FF430
:1001BC009851304600F0F4FB4FF4005304930127A0
:1001CC00059702250695079504A9404600F0D8FA34
:1001DC004FF48058CDF8108005970694079504A924
:1001EC00304600F0CDFACDF810800594069404A9A1
:1001FC00094800F0C5FA4FF440730493059706952F
:10020C00079504A9304600F0BBFA08B0BDE8F081B0
:10021C0000100240000C0140000801400010014099
:10022C0072B6FEE708B50D480D4B03604FF48273B0
:10023C00436000238360C360036143614FF4007229
:10024C0082612022C2610362436283620A23C36219
:10025C0000F0E6FE00B908BDFFF7E2FF5C040020E9
:10026C000030014008B50A480A4B03604FF416539E
:10027C00436000238360C36003610C22426183618D
:10028C00C36101F047F800B908BDFFF7C9FF00BF13
:10029C00B40400200038014000B591B0002309934C
:1002AC000B930C93019302930393049305930121F5
:1002BC0006914FF48032079208930A9102230D9312
:1002CC000E924FF4E0130F9306A800F08FFB80B949
:1002DC000F23019302210291002303934FF48062B8
:1002EC000492059301A800F0BFFD20B911B05DF890
:1002FC0004FBFFF795FFFFF793FF000008B500F034
:10030C002FF9FFF7C9FFFFF71BFFFFF78BFFFFF775
:10031C00A9FF4FF40051044800F048FB4FF4FA7069
:10032C0000F042F9F5E700BF0010014082B00E4B1F
:10033C009A6942F001029A619A6902F001020092F4
:10034C00009ADA6942F08052DA61DB6903F080537B
:10035C000193019B054A536823F0E06343F000735B
:10036C00536002B0704700BF001002400000014013
:10037C0030B587B00023029303930493059302686E
:10038C001A4B9A4201D007B030BD03F560439A690D
:10039C0042F480529A619A6902F480520092009A57
:1003AC009A6942F004029A619B6903F00403019379
:1003BC00019BA023029302230393032305930C4D6B
:1003CC0002A9284600F0DCF9402302930024039490
:1003DC00049402A9284600F0D3F922462146232092
:1003EC0000F008F9232000F039F9CCE70030014087
:1003FC000008014030B587B00023029303930493A7
:10040C00059302681B4B9A4201D007B030BD03F52F
:10041C0058439A6942F480429A619A6902F4804284
:10042C000092009A9A6942F004029A619B6903F067
:10043C0004030193019B4FF4007302930223039373
:10044C00032305930C4D02A9284600F099F94FF4AB
:10045C008063029300240394049402A9284600F0BC
:10046C008FF922462146252000F0C4F8252000F003
:10047C00F5F8CAE70038014000080140FEE7FEE746
:10048C00FEE7FEE7FEE770477047704708B500F0DF
:10049C0079F808BD08B5024800F01EFE08BD00BF83
:1004AC005C04002008B5024800F0E6FF08BD00BF60
:1004BC00B404002008B50122014901F0FAF808BD86
:1004CC0058040020704700000C480D490D4A0023C9
:1004DC0002E0D458C4500433C4188C42F9D30A4AED
:1004EC000A4C002301E013600432A242FBD3FFF755
:1004FC00E9FF01F0FBF8FFF701FF70470000002057
:10050C003C040020741800083C0400202005002046
:10051C00FEE7000010B504460E4B18784FF47A73C2
:10052C00B3FBF0F30C4A1068B0FBF3F000F0A4F846
:10053C0068B90F2C01D901200AE0002221464FF0A6
:10054C00FF3000F057F8054B1C60002000E0012044
:10055C0010BD00BF04000020000000200800002097
:10056C0008B5074A136843F010031360032000F02A
:10057C002FF80020FFF7CEFFFFF7D8FE002008BDB4
:10058C0000200240034A1168034B1B780B44136094
:10059C00704700BFF804002004000020014B1868CD
:1005AC00704700BFF804002038B50446FFF7F6FF8B
:1005BC000546B4F1FF3F02D0044B1B781C44FFF7F7
:1005CC00EDFF401BA042FAD338BD00BF0400002051
:1005DC00074AD36823F4E0631B041B0C000200F4ED
:1005EC00E060034343F0BF6343F40033D3607047D0
:1005FC0000ED00E030B4174BDB68C3F30223C3F10A
:10060C000704042C28BF04241D1D062D18D9033BF8
:10061C004FF0FF3505FA04F421EA0401994005FA7C
:10062C0003F322EA0303194300280BDB0901C9B2C7
:10063C0000F1604000F5614080F8001330BC704759
:10064C000023E5E700F00F000901C9B2024B195471
:10065C00F4E700BF00ED00E014ED00E0002807DB3C
:10066C0000F01F02400901239340024A42F8203057
:10067C00704700BF00E100E00138B0F1807F0AD282
:10068C00064B5860064AF02182F82310002098602F
:10069C0007221A6070470120704700BF10E000E08D
:1006AC0000ED00E090F82130022B06D00423836388
:1006BC00002380F82030012070470268136823F073
:1006CC000E0313600268136823F001031360036CBC
:1006DC00C16B012202FA03F34B6080F82120002346
:1006EC0080F820301846704708B590F82130022B5E
:1006FC0003D004238363012008BD0268136823F030
:10070C000E0313600268136823F00103136003687F
:10071C00194A934214D0143293421FD0143293428C
:10072C001ED0143293421ED0143293421ED0143277
:10073C00934202D04FF0807203E04FF4801200E03D
:10074C0001220E4B5A60012380F82130002380F8DF
:10075C002030436B6BB198470020CDE71022F0E7B7
:10076C004FF48072EDE74FF48052EAE74FF4803299
:10077C00E7E70020C0E700BF08000240000002408D
:10078C00F0B482B000252C46A3E07F4FBB4210D0C2
:10079C0007D97E4FBB420CD007F58037BB4208D03F
:1007AC0013E0A7F58017BB4203D007F57027BB42B7
:1007BC0007D18B68002B58D0012B51D042610825F2
:1007CC0003E0A7F58017BB42F3D0FF2E4FD8844629
:1007DC00FF2E4FD8A200DCF800300F27974023EAF9
:1007EC00070305FA02F21343CCF800304B6813F000
:1007FC00805F6DD0664B9A6942F001029A619B69E9
:10080C0003F001030193019BA208971C614B53F861
:10081C00273004F00307BF004FF00F0C0CFA07FC55
:10082C0023EA0C0C5C4B98422AD003F58063984267
:10083C0000F08A8003F58063984200F0878003F50E
:10084C00806398421AD004231BE0CD68BDE7CD68C5
:10085C000435BAE7CD680835B7E7CD680C35B4E791
:10086C0002610825B1E70025AFE70425ADE700F1EB
:10087C00040CADE7A4F108029200ACE7032300E0FE
:10088C000023BB4043EA0C030232424F47F82230AC
:10089C004B6813F4803F5BD0404A136833431360BA
:1008AC004B6813F4003F59D03C4A536833435360B0
:1008BC004B6813F4801F57D0384A936833439360C6
:1008CC004B6813F4001F55D0344AD3681E43D660CE
:1008DC0001340B6833FA04F252D00122A24003EA2D
:1008EC00020632EA0303F3D14B68122B3FF64DAFED
:1008FC00122B3FF66AAF01A757F823F0BF07000889
:10090C00570800086108000873080008D70700089A
:10091C00D7070008D7070008D7070008D707000833
:10092C00D7070008D7070008D7070008D707000823
:10093C00D7070008D7070008D7070008D707000813
:10094C005B0800086708000801239AE7022398E770
:10095C00124A136823EA06031360A1E70F4A53688F
:10096C0023EA06035360A3E70C4A936823EA0603C1
:10097C009360A5E7094AD36823EA0606D660A7E781
:10098C0002B0F0BC704700BF000022100000311014
:10099C00001002400000014000080140000401402A
:1009AC000AB101617047090401617047C36801EA2B
:1009BC00030221EA030141EA024101617047000090
:1009CC0082B0084B1B68084AA2FB03235B0A00FB9E
:1009DC0003F3019300BF019B5A1E0192002BF9D126
:1009EC0002B0704700000020D34D6210002800F0C8
:1009FC00F18170B582B00446036813F0010F2CD05E
:100A0C00AA4B5B6803F00C03042B1DD0A74B5B684F
:100A1C0003F00C03082B12D06368B3F5803F41D070
:100A2C00002B55D103F1804303F504331A6822F4EB
:100A3C0080321A601A6822F480221A6037E09B4BCD
:100A4C005B6813F4803FE7D0984B1B6813F4003FAE
:100A5C0003D06368002B00F0BF81236813F0020FF2
:100A6C0075D0924B5B6813F00C0F5FD08F4B5B68AB
:100A7C0003F00C03082B54D02369002B00F0898061
:100A8C008B4B01221A60FFF789FD0546874B1B68CB
:100A9C0013F0020F74D1FFF781FD401B0228F5D92A
:100AAC0003209EE1814A136843F48033136063682A
:100ABC0043B3FFF773FD05467C4B1B6813F4003FF3
:100ACC00CBD1FFF76BFD401B6428F5D9032088E1DF
:100ADC00B3F5A02F09D0754B1A6822F480321A6036
:100AEC001A6822F480221A60E1E703F18043A3F52F
:100AFC003C331A6842F480221A601A6842F480323D
:100B0C001A60D4E7FFF74AFD0546684B1B6813F4DF
:100B1C00003FA2D0FFF742FD401B6428F5D903200B
:100B2C005FE1624B5B6813F4803FA5D15F4B1B68A0
:100B3C0013F0020F03D02369012B40F04F815B4A65
:100B4C00136823F0F803616943EAC1031360236857
:100B5C0013F0080F32D0A369002B45D0554B01225E
:100B6C001A60FFF71BFD0546504B5B6A13F0020F32
:100B7C0021D1FFF713FD401B0228F5D9032030E1EA
:100B8C004A4A136823F0F803616943EAC10313600E
:100B9C00DDE7474B00221A60FFF700FD0546434B8B
:100BAC001B6813F0020FD2D0FFF7F8FC401B022891
:100BBC00F5D9032015E10120FFF702FF236813F09C
:100BCC00040F00F09780394BDB6913F0805F1DD167
:100BDC00364BDA6942F08052DA61DB6903F08053FC
:100BEC000193019B012512E0324B00221A60FFF7A2
:100BFC00D5FC05462D4B5B6A13F0020FDED0FFF7D8
:100C0C00CDFC401B0228F5D90320EAE000252A4B35
:100C1C001B6813F4807F11D0E368012B22D0002BCA
:100C2C0038D103F1804303F504331A6A22F0010230
:100C3C001A621A6A22F004021A6218E01E4A136839
:100C4C0043F480731360FFF7A9FC06461A4B1B682C
:100C5C0013F4807FE0D1FFF7A1FC801B6428F5D949
:100C6C000320BEE0114A136A43F001031362E368E8
:100C7C0073B3FFF793FC06460C4B1B6A13F0020F81
:100C8C0037D1FFF78BFC801B41F288339842F3D9A4
:100C9C000320A6E0052B11D0044B1A6A22F00102A6
:100CAC001A621A6A22F004021A62E0E7001002408B
:100CBC000000424280044242007000404D4B1A6AD0
:100CCC0042F004021A621A6A42F001021A62CEE77A
:100CDC00FFF764FC0646474B1B6A13F0020F08D063
:100CEC00FFF75CFC801B41F288339842F3D9032058
:100CFC0077E0E5B9E369002B72D03E4A526802F006
:100D0C000C02082A56D0022B17D03B4B00221A603B
:100D1C00FFF744FC0446374B1B6813F0007F47D0A9
:100D2C00FFF73CFC001B0228F5D9032059E0314A9F
:100D3C00D36923F08053D361DCE72F4B00221A6078
:100D4C00FFF72CFC05462B4B1B6813F0007F06D0DD
:100D5C00FFF724FC401B0228F5D9032041E0236A4D
:100D6C00B3F5803F1AD023494B6823F47413226ADD
:100D7C00606A024313434B601F4B01221A60FFF75A
:100D8C000DFC04461B4B1B6813F0007F0ED1FFF7C4
:100D9C0005FC001B0228F5D9032022E0154A5368F4
:100DAC0023F40033A1680B435360DCE7002018E008
:100DBC00002016E0012B16D00E4B5B6803F480313B
:100DCC00226A914211D103F47013626A93420ED1DC
:100DDC00002006E001207047012002E0012000E025
:100DEC00002002B070BD0120FBE70120F9E70120D3
:100DFC00F7E700BF001002406000424286B0164B7D
:100E0C000FCB0DF1180C0CE90F0040F20123ADF8DB
:100E1C000430124B5B6803F00C02082A02D0104815
:100E2C0006B07047C3F38342624412F8102C13F4DB
:100E3C00803F0CD0094B5B68C3F34043634413F809
:100E4C00143C074800FB02F0B0FBF3F0E8E7054860
:100E5C0000FB02F0E4E700BF50180008001002404D
:100E6C0000127A0000093D00002800F0A08070B547
:100E7C000D460446524B1B6803F007038B420BD202
:100E8C004F4A136823F007030B431360136803F0F6
:100E9C0007038B4240F08D80236813F0020F17D0AC
:100EAC0013F0040F04D0474A536843F4E0635360D3
:100EBC00236813F0080F04D0424A536843F460537C
:100ECC005360404A536823F0F003A1680B4353600E
:100EDC00236813F0010F31D06368012B20D0022B53
:100EEC0025D0384A126812F0020F64D035494A688E
:100EFC0022F0030213434B60FFF750FB0646314BC5
:100F0C005B6803F00C036268B3EB820F16D0FFF73B
:100F1C0045FB801B41F288339842F0D9032045E011
:100F2C00284A126812F4003FE0D101203EE0254A25
:100F3C00126812F0007FD9D1012037E0204B1B68DA
:100F4C0003F00703AB420AD91D4A136823F00703C9
:100F5C002B431360136803F00703AB422DD12368B6
:100F6C0013F0040F06D0174A536823F4E063E168CA
:100F7C000B435360236813F0080F07D0114A5368D2
:100F8C0023F46053216943EAC1035360FFF736FF32
:100F9C000C4B5B68C3F303130B4AD35CD8400B4B6D
:100FAC0018600B4B1868FFF7B5FA002070BD0120D4
:100FBC0070470120FAE70120F8E70120F6E700BFAF
:100FCC0000200240001002403818000800000020E9
:100FDC0008000020014B1868704700BF000000207B
:100FEC0008B5FFF7F7FF044B5B68C3F30223034A12
:100FFC00D35CD84008BD00BF001002404818000860
:10100C0008B5FFF7E7FF044B5B68C3F3C223034A41
:10101C00D35CD84008BD00BF00100240481800083F
:10102C00002856D010B50446436A33B94368B3F56B
:10103C00827F05D00023C36102E00023036143617A
:10104C000023A36294F85130002B3CD0022384F887
:10105C0051302268136823F040031360636803F473
:10106C008273A26802F404421343E26802F4006241
:10107C001343226902F002021343626902F0010277
:10108C001343A26902F400721343E26902F03802BE
:10109C001343226A02F080021343A26A02F4005244
:1010AC00216813430B60638B226803F004035360C5
:1010BC002268D36923F40063D361002060650123A7
:1010CC0084F8513010BD84F850302046FFF750F9A9
:1010DC00BCE701207047704730B585B00446026804
:1010EC0051689368C3F3801013F0400F05D113F0CF
:1010FC00010F02D011F0400F5AD113F0020F02D0A1
:10110C0011F0800F58D1C3F3401513F0200F01D10B
:10111C00002854D011F0200F51D078B194F85130F0
:10112C00DBB2032B4DD0636D43F0040363650023E6
:10113C000193D368019393680193019B65B1636D2F
:10114C0043F00103636500230393936803931368CF
:10115C0023F040031360039B636D002B2FD0226898
:10116C00536823F0E0035360012384F8513011F0ED
:10117C00030F2ED02268536823F003035360E36CF3
:10118C004BB1164A5A63E06CFFF7AEFA18B1636DB7
:10119C0043F040036365A36C8BB1104A5A63A06C97
:1011AC00FFF7A2FA58B1636D43F04003636506E0A4
:1011BC00236C2046984702E0636C2046984705B0A4
:1011CC0030BD00230293D368029393680293029B71
:1011DC00F5E72046FFF77FFFF1E700BFED110008B0
:1011EC0008B5406A0023C387C386FFF774FF08BDA8
:1011FC000268D36823F49073D3600268536923F0B8
:10120C0001035361036B012B05D0202380F83E3082
:10121C000023036370470268D36823F01003D36084
:10122C00F3E790F83D30DBB2212B01D00220704760
:10123C008368B3F5805F17D0036A5A1C02621A7870
:10124C0003685A60C38C9BB2013B9BB2C3844BB9FD
:10125C000268D36823F08003D3600268D36843F03C
:10126C004003D360002070470369002BE4D1036A6C
:10127C001B880268C3F308035360036A02330362DA
:10128C00E0E7000010B504460268136923F44053EC
:10129C00C1680B43136183680269134342691A43A3
:1012AC000168CB6823F4B05323F00C031343CB60D9
:1012BC000268536923F4407381690B4353610268DC
:1012CC00124B9A421FD0FFF78BFE00EB800303EB0F
:1012DC00830362689200B3FBF2F20D48A0FB02316B
:1012EC004909642303FB11231B013233A0FB0323A5
:1012FC005B0903F0F00202EB011203F00F0321680B
:10130C0013448B6010BDFFF77BFEDEE70038014015
:10131C001F85EB5158B310B5044690F83D300BB314
:10132C00242384F83D302268D36823F40053D3601F
:10133C002046FFF7A7FF2268136923F4904313613B
:10134C002268536923F02A0353612268D36843F45B
:10135C000053D36000202064202384F83D3084F8AF
:10136C003E3010BD80F83C30FFF744F8D8E7012040
:10137C007047704708B50168CA6822F04002CA601D
:10138C00202280F83D20FFF7F4FF002008BD7047B5
:10139C0008B5406A0023C385C384FFF7F8FF08BD76
:1013AC00704790F83E30DBB2222B60D18368B3F5E6
:1013BC00805F46D0826AB3F5805F04D0002B4DD19C
:1013CC000369002B4AD103685B681370836A01338D
:1013DC008362C38D9BB2013B9BB2C385002B48D16A
:1013EC0000B583B00268D36823F02003D360026891
:1013FC00D36823F48073D3600268536923F001032C
:10140C005361202380F83E30036B012B2CD1002339
:10141C0003630268D36823F01003D36003681A686F
:10142C0012F0100F06D0002201921A6801925B682C
:10143C000193019B818DFFF7B3FF002003B05DF892
:10144C0004FB0269002AB5D1826A03685B68C3F3A6
:10145C0008031380836A02338362BAE703685B680C
:10146C0003F07F031370B1E7FFF724F8E5E70220E0
:10147C00704700207047000030B583B00446026806
:10148C001368D068516913F00F0505D113F0200FC4
:10149C0002D010F0200F19D12DB111F0010119D18A
:1014AC0010F4907F16D1216B012975D013F0800FA9
:1014BC0003D010F0800F40F0D78013F0400F03D012
:1014CC0010F0400F40F0D48003B030BD2046FFF741
:1014DC0068FFF9E713F0010F06D010F4807F03D0FA
:1014EC00226C42F00102226413F0040F04D019B1F3
:1014FC00226C42F00202226413F0020F04D019B1E4
:10150C00226C42F00402226413F0080F07D010F092
:10151C00200F00D119B1226C42F008022264226C17
:10152C00002AD1D013F0200F02D010F0200F21D1BF
:10153C0023685B6903F04003226C12F0080F00D1A2
:10154C0023B32046FFF754FE23685A6912F0400F6C
:10155C0018D05A6922F040025A61A36B73B1464A03
:10156C005A63A06BFFF7C0F80028ADD0A06B436B9B
:10157C009847A9E72046FFF714FFD9E72046FFF765
:10158C0006FFA1E72046FFF702FF9DE72046FFF785
:10159C00FEFE0023236497E713F0100F86D010F0A3
:1015AC00100F83D0002301931368019353680193A8
:1015BC00019B536913F0400F32D0A16B0B685B6831
:1015CC009BB2002B80D0A08D98427FF67DAFE38537
:1015DC008B69202B08D1A18DE38D9BB2C91A89B2DE
:1015EC002046FFF7DDFE6FE7D36823F48073D360EA
:1015FC002268536923F0010353612268536923F075
:10160C0040035361202384F83E3000232363226877
:10161C00D36823F01003D360A06BFFF743F8DAE72D
:10162C00A18DE38D9BB2C91A89B2E38D9BB2002BBD
:10163C003FF44AAF00293FF447AFD36823F49073CB
:10164C00D3602268536923F001035361202384F88B
:10165C003E30002323632268D36823F01003D36049
:10166C002046FFF79DFE2FE72046FFF7DAFD2BE71C
:10167C002046FFF77FFE27E79D1300080346816293
:10168C008285C28500201864222283F83E2083F8CC
:10169C003C001968CA6842F48072CA6019684A69C9
:1016AC0042F001024A611A68D36843F02003D36008
:1016BC00704708B590F83E30DBB2202B0DD171B1DC
:1016CC007AB190F83C30012B0DD0012380F83C30DE
:1016DC0000230363FFF7D2FF00E0022008BD0120C6
:1016EC00FCE70120FAE70220F8E7000070B50D4E88
:1016FC000D4D761BB61006D0002455F8043B013472
:10170C009847A642F9D1094E094D00F083F8761B93
:10171C00B61006D0002455F8043B01349847A64275
:10172C00F9D170BD68180008681800087018000816
:10173C0068180008024B13B1024800F01FB870473C
:10174C00000000005517000838B5084B084D5B1B0E
:10175C009C1007D0043B1D44013C55F804399847B4
:10176C00002CF9D1BDE8384000F05AB874180008C4
:10177C0070180008704700BF704700BF0023014677
:10178C001A46184600F000B82DE9F047DFF880A0A3
:10179C000646DAF8000098460F469146FFF7EAFF36
:1017AC001A4B1B68D3F8484124B365681F2D26DCFF
:1017BC005EB96B1C0235DAF80000636044F82570E2
:1017CC00FFF7DAFF0020BDE8F087012304EB850169
:1017DC00C1F88890D4F88821AB401A43022EC4F883
:1017EC008821C1F80881E4D1D4F88C211343C4F8C2
:1017FC008C31DEE703F5A674C3F84841D5E7DAF877
:10180C000000FFF7B9FF4FF0FF30DCE76418000869
:10181C0038040020F8B500BFF8BC08BC9E467047E1
:0C182C00F8B500BFF8BC08BC9E46704731
:101838000000000000000000010203040607080978
:10184800000000000102030402030405060708095A
:101858000A0B0C0D0E0F10100000000010000020E5
:081868004117000831010008DE
:041870000D0100085E
:101874000024F4000100000010000000000000003B
:1018840000000000FC02002064030020CC030020C0
:101894000000000000000000000000000000000044
:1018A4000000000000000000000000000000000034
:1018B4000000000000000000000000000000000024
:1018C4000000000000000000000000000000000014
:1018D4000000000000000000000000000000000004
:1018E40000000000000000000000000000000000F4
:1018F40000000000000000000000000000000000E4
:1019040000000000000000000000000000000000D3
:1019140000000000000000000000000000000000C3
:1019240000000000000000000100000000000000B2
:101934000E33CDAB34126DE6ECDE05000B00000077
:101944000000000000000000000000000000000093
:101954000000000000000000000000000000000083
:101964000000000000000000000000000000000073
:101974000000000000000000000000000000000063
:0C1CA4000000000000000000FC04002014
:04000005080004D516
:00000001FF
